:100000000C94720A0C94A10A0C94A10A0C94A10AF3
:100010000C94A10A0C94A10A0C94A10A0C94A10AB4
:100020000C94A10A0C94A10A0C94A10A0C94A10AA4
:100030000C94A10A0C94B6860C94A10A0C94A10A03
:100040000C94A10A0C9441730C942D900C94A10A69
:100050000C94C6640C94A10A0C94A10A0C94A10AF5
:100060000C94A10A0C94A10A0C947C8E0C94A10A05
:100070000C94A10A0C94A10A0C94A10A0C94A10A54
:100080000C94A10A0C94A10A0C94A10A211D241D10
:100090002A1D1D1D211D241D2A1D2A1D8520962077
:1000A000CF20FA201F21342149216E21CE212A227E
:1000B00085228A739673B273BE73D873DA73DC7356
:1000C000DE73E673BA8FBD8FB08FB48FD48FC18FBC
:1000D000C58FCB8FCF8F3A913F9144914E917C91B8
:1000E0005891609168917291084AD73B3BCE016E5E
:1000F00084BCBFFDC12F3D6C74319ABD56833DDA7F
:100100003D00C77F11BED9E4BB4C3E916BAAAABE8D
:10011000000000803F072C7AA5BA6CC590DA3B93AB
:1001200065FC8BBC53F810FD3C5692834DBD879DFA
:100130003AB63DCBC9BF5BBE73DA0FC93F05A84CC9
:10014000CDB2D44EB93836A9020C50B99186880880
:100150003CA6AAAA2ABE000000803F0664EC1B3C15
:1001600004BC163E3BE5B93CC93C37C29E5A3D66CD
:100170000498083EEA69AAAA3E000000803F507237
:10018000696E7465722068616C7465642E206B6999
:100190006C6C28292063616C6C6564210050726965
:1001A0006E7465722068616C7465642E206B696C76
:1001B0006C28292063616C6C6564210054454D50A6
:1001C0003A00524553455454494E47204649524DF2
:1001D000574152452E2E2E2E2E002200556E6B6E4C
:1001E0006F776E20636F6D6D616E643A2022002020
:1001F000207A70726F62655F7A6F66667365743DB0
:100200002020005A4F533A005A4F533A007A5F6DFC
:1002100061783A20007A5F6D696E3A2000795F6DEF
:1002200061783A2000785F6D696E3A2000205A3A72
:100230000020593A005472616E7320506F73205839
:100240003A00205A3A0020593A00436F756E7420E4
:10025000506F7320583A0020453A00205A3A002047
:10026000593A0043757272656E7420506F7320584E
:100270003A004649524D574152455F4E414D453A2D
:100280004D61726C696E2056313B20537072696EFD
:100290007465722F6772626C206D6173687570206F
:1002A000666F722067656E36204649524D5741523F
:1002B000455F55524C3A68747470733A2F2F6769D2
:1002C000746875622E636F6D2F4572696B5A616C2D
:1002D0006D2F4D61726C696E2F2050524F544F43F9
:1002E0004F4C5F56455253494F4E3A312E30204DB8
:1002F000414348494E455F545950453A4D656E64F7
:10030000656C2045585452554445525F434F554EF5
:10031000543A3120555549443A303030303030303D
:10032000302D303030302D303030302D30303030D6
:100330002D303030303030303030303030204D6182
:10034000726C696E2056657273696F6E3A322E3127
:1003500020436F6D70696C65643A46656220203396
:1003600020323031352031363A33303A31390A00D3
:1003700020423A0020453A00543A0020573A0020E3
:10038000453A00543A002042403A0020403A0020CA
:100390002F003A00205400202F0020423A00202F46
:1003A000006F6B20543A0054454D503A00256920A7
:1003B0006D696E2C20256920736563004275636347
:1003C000616E65657220697320696E204D65636892
:1003D000616E6963616C20436F6F7264696E6174F2
:1003E000652053797374656D00206973206D6F64A7
:1003F00069666965642E004D656368616E69636155
:100400006C20436F6F7264696E617465206F662043
:100410000058595A4520436F6F7264696E61746564
:10042000732061726520696E2052656C6174697613
:100430006520506F736974696F6E696E67005859F3
:100440005A4520436F6F7264696E617465732061F1
:10045000726520696E204162736F6C7574652050FF
:100460006F736974696F6E696E670042756363616B
:100470006E65657220697320696E205072696E74B2
:10048000696E6720436F6F7264696E617465205393
:10049000797374656D0042756363616E6565722082
:1004A000697320696E204D656368616E6963616C74
:1004B00020436F6F7264696E617465205379737441
:1004C000656D000A00205A3A200020593A20002089
:1004D000583A20004265640020202020207A6F6670
:1004E000667365745F7072696E74696E673A002036
:1004F000202020207A6F66667365745F6572726F64
:10050000725F62656474696C743A007A70726F62CB
:10051000655F7A6F66667365743A0050455243456D
:100520004E543A00486F6D652058202620592062AD
:1005300065666F7265204175746F6C6576656C6C6D
:10054000696E670052756E2042656420646574654B
:1005500063742073657175656E6365206265666F8F
:10056000726520617474656D7074696E6720746F54
:10057000207061636B00494E495449414C5F533AC6
:100580000050455243454E543A0050455243454E63
:10059000543A0050455243454E543A005045524358
:1005A000454E543A0050455243454E543A0050454A
:1005B0005243454E543A0050455243454E543A003A
:1005C00050455243454E543A0050455243454E54CF
:1005D0003A002020506C616E6E65724275666665E9
:1005E0007242797465733A20002046726565204D29
:1005F000656D6F72793A20004665622020332032A3
:1006000030313500436F6D70696C65643A2000507D
:100610006972617465334400207C20417574686F91
:10062000723A200046656220203320323031352076
:1006300031363A33303A313900204C6173742055E9
:100640007064617465643A2000322E31004D61722D
:100650006C696E005761746368646F6720496E74DB
:100660006572727570742044697361626C656400B0
:1006700020536F66747761726520526573657400EC
:10068000205761746368646F6720526573657400F6
:100690002042726F776E206F757420526573657497
:1006A000002045787465726E616C205265736574C4
:1006B00000506F776572557000737461727400FF3B
:1006C00001FF0000A0400000A0400000803F0000AB
:1006D0000C430000C6421F852343000000000000B9
:1006E000C6420000000000000C430000C6421F8507
:1006F00023430000000000000000000000006563CC
:10070000686F3A004552523A0020746F6F206C6F48
:100710006E6720657874727573696F6E207072658C
:1007200076656E7465640020636F6C642065787410
:10073000727573696F6E2070726576656E7465642C
:10074000006563686F3A0048617264636F64656452
:100750002044656661756C742053657474696E67B6
:1007600073204C6F616465640053746F726564201C
:1007700073657474696E67732072657472696576E7
:10078000656400207A70726F62655F7A6F66667367
:10079000657420004175746F206C6576656C696EB8
:1007A000672053657474696E67733A0020440020B3
:1007B00049002020204D3330312050005049442042
:1007C00073657474696E67733A00205A002059008B
:1007D00020204D323036205800486F6D65206F66FE
:1007E0006673657420286D6D293A00204500205AF3
:1007F0000020580020420020540020204D32303587
:10080000205300416476616E63656420766172698D
:1008100061626C65733A20533D4D696E2066656573
:10082000647261746520286D6D2F73292C20543DEE
:100830004D696E2074726176656C206665656472C0
:1008400061746520286D6D2F73292C20423D6D69E0
:100850006E696D756D207365676D656E7420746962
:100860006D6520286D73292C20583D6D6178696D68
:10087000756D205859206A65726B20286D6D2F7335
:10088000292C20205A3D6D6178696D756D205A20A4
:100890006A65726B20286D6D2F73292C2020453DD1
:1008A0006D6178696D756D2045206A65726B2028D1
:1008B0006D6D2F73290020540020204D32303420DC
:1008C0005300416363656C65726174696F6E3A20B1
:1008D000533D616363656C65726174696F6E2C2052
:1008E000543D7265747261637420616363656C6505
:1008F000726174696F6E00204500205A0020590013
:1009000020204D3230312058004D6178696D756D71
:1009100020416363656C65726174696F6E20286D38
:100920006D2F7332293A00204500205A00205900CB
:1009300020204D3230332058004D6178696D756D3F
:100940002066656564726174657320286D6D2F7310
:10095000293A00204500205A0020590020204D3916
:100960003220580053746570732070657220756E64
:1009700069743A0053657474696E67732053746FB9
:1009800072656420696E20454550524F4D00656385
:10099000686F3A003A00444F4E450054656D7065EB
:1009A0007261747572652068656174656420626542
:1009B00064207377697463686564206F66662E20AF
:1009C0004D415854454D5020747269676765726592
:1009D00064202121003A2045787472756465722084
:1009E0007377697463686564206F66662E204D496D
:1009F0004E54454D50207472696767657265642076
:100A000021003A20457874727564657220737769A5
:100A10007463686564206F66662E204D41585445A6
:100A20004D502074726967676572656420210020EB
:100A30002D20496E76616C696420657874727564E6
:100A40006572206E756D62657220210050494420E8
:100A50004175746F74756E652066696E697368653B
:100A600064212050757420746865206C6173742053
:100A70004B702C204B6920616E64204B6420636FA7
:100A80006E7374616E74732066726F6D2061626F35
:100A9000766520696E746F20436F6E666967757244
:100AA0006174696F6E2E6800504944204175746FFF
:100AB00074756E65206661696C6564212074696D6A
:100AC000656F75740020403A006F6B20543A006FD8
:100AD0006B20423A00504944204175746F74756E22
:100AE00065206661696C6564212054656D7065726E
:100AF000617475726520746F6F2068696768002083
:100B00004B643A2000204B693A2000204B703A2079
:100B10000020436C617373696320504944200020B6
:100B200054753A2000204B753A2000206D61783AC8
:100B30002000206D696E3A200020643A2000206277
:100B40006961733A20004552523A008002FA00204F
:100B500003F000C003EB006004E6000005E100A024
:100B600005DC002006D200D006CD00F007C80070DA
:100B700008C4000009BF00900ABA00600BB600A0CC
:100B80000BB000500CAB00200DA500200FA00040C2
:100B9000109C00801198005013920050158D003069
:100BA000178700101B7D00901C7A00001E76001035
:100BB000207200F0216D001024690070266300503F
:100BC000285F00902A5A00402C5600C02E5000A0EA
:100BD000304B00203247009033430000353F00A0E7
:100BE000363A00D0373600E0383100D0392B00D00B
:100BF0003A2600903B2100003C2000303C1F005072
:100C00003C1E00903D1400803E0A00203F00002062
:100C10005A3A0020593A0020583A00656E647374BD
:100C20006F7073206869743A2000127A6A18A8619C
:100C300047106151A00BC145B808093DC9064036AF
:100C40006C05D4307104632CB303B02821038F25C5
:100C5000AF02E02253028D200902841ECC01B81C91
:100C60009801201B6E01B21948016A182A01401729
:100C70000F013116F7003A15E2005814D00088131E
:100C8000C100C712B2001512A50070119A00D6104B
:100C9000900046108600C00F7E00420F7700CB0EFA
:100CA0006F005C0E6900F30D6300900D5E00320D65
:100CB0005900D90C5400850C5000350C4D00E80B40
:100CC0004800A00B46005A0B4200180B3F00D90AFF
:100CD0003C009D0A3A00630A37002C0A3500F709E8
:100CE0003300C409320092092F0063092D00360930
:100CF0002C000A092A00E0082800B80828009008FB
:100D000025006B082500460823002308220001085F
:100D10002100E0072000C0071F00A1071E00830775
:100D20001E0065071C0049071B002E071B00130748
:100D30001A00F9061900E0061800C8061800B006E7
:100D4000170099061700820616006C061500570654
:100D50001500420614002E0614001A06130007069A
:100D60001300F4051200E2051200D0051200BE05C2
:100D70001100AD0511009C0510008C0510007C05CC
:100D800010006C050F005D050F004E050E004005BC
:100D90000F0031050E0023050D0016050E00080595
:100DA0000D00FB040D00EE040C00E2040D00D50460
:100DB0000C00C9040C00BD040C00B1040B00A60417
:100DC0000B009B040B0090040B0085040B007A04BD
:100DD0000A0070040A0066040A005C040A00520457
:100DE0000A0048040A003E040900350409002C04E6
:100DF0000900230409001A04090011040800090469
:100E0000090000040800F8030800F0030800E803E4
:100E10000800E0030800D8030800D0030800C80356
:100E20000700C1030700BA030800B2030700AB03C1
:100E30000700A40307009D03060097030700900323
:100E4000070089030600830307007C03060076037E
:100E50000600700306006A030600640306005E03D2
:100E6000060058030600520306004C030600460322
:100E70000500410306003B0305003603060030036E
:100E800005002B03050026030500210305001C03B4
:100E9000050017030500120305000D0305000803F4
:100EA000050003030500FE020400FA020500F50236
:100EB0000400F1020500EC020400E8020500E30270
:100EC0000400DF020500DA020400D6020400D202A8
:100ED0000400CE020400CA020400C6020400C202DA
:100EE0000400BE020400BA020400B6020400B2020A
:100EF0000400AE020300AB020400A7020400A30238
:100F00000300A00204009C02040098020300950262
:100F10000400910203008E0203008B02040087028A
:100F2000030084020300810204007D0203007A02B0
:100F300003007702030074020300710204006D02D3
:100F400003006A02030067020300640203006102F7
:100F500003005E0203005B02030058020200560217
:100F6000030053020300500203004D0203004A0233
:100F70000200480203004502030042020200400250
:100F800003003D0203003A0202003802030035026A
:100F9000020033020300300202002E0203002B0283
:100FA000020029020300260202002402030021029B
:100FB00002001F0202001D0203001A0202001802B2
:100FC00002001602030013020200110202000F02C7
:100FD00002000D0202000B020300080202000602DA
:100FE0000200040202000202020000020200FE01EE
:100FF0000200FC010200FA010200F8010200F60101
:101000000200F4010200F2010200F0010200EE0110
:101010000200EC010200EA010200E8010200E60120
:101020000200E4010200E2010200127A826C900DDB
:1010300062062E074C02E2043001B203B800FA0245
:101040007D007D02590024024400E0013400AC011F
:101050002B00810122005F011D00420119002901BE
:1010600015001401120002011000F2000E00E4004D
:101070000D00D7000B00CC000A00C2000A00B80027
:101080000800B0000800A8000700A10006009B00AF
:10109000060095000500900006008A000400860006
:1010A0000500810004007D00040079000400750043
:1010B0000300720003006F0003006C00030069006E
:1010C00003006600030063000200610003005E008D
:1010D00002005C0002005A000200580002005600A4
:1010E00002005400020052000100510002004F00B3
:1010F00002004D0001004C0002004A0001004900BE
:1011000001004800020046000100450001004400C3
:1011100001004300010042000200400001003F00C6
:1011200001003E0001003D0001003C0001003B00C9
:1011300000003B0001003A000100390001003800C6
:1011400001003700010036000000360001003500C4
:1011500001003400010033000000330001003200C0
:1011600000003200010031000100300000003000BA
:1011700001002F0001002E0000002E0001002D00B4
:1011800000002D0001002C0000002C0001002B00AD
:1011900000002B0001002A0000002A0001002900A5
:1011A000000029000000290001002800000028009C
:1011B0000100270000002700000027000100260092
:1011C0000000260001002500000025000000250089
:1011D000010024000000240000002400010023007E
:1011E0000000230000002300010022000000220074
:1011F0000000220001002100000021000000210069
:10120000000021000100200000002000000020005C
:1012100001001F0000001F0000001F0000001F0051
:1012200001001E0000001E0000001E0000001E0045
:1012300000001E0001001D0000001D0000001D0038
:1012400000001D0001001C0000001C0000001C002C
:1012500000001C0000001C0001001B0000001B001F
:1012600000001B0000001B0000001B0001001A0012
:1012700000001A0000001A0000001A0000001A0006
:1012800000001A00010019000000190000001900F8
:1012900000001900000019000000190001001800EA
:1012A00000001800000018000000180000001800DE
:1012B00000001800010017000000170000001700D0
:1012C00000001700000017000000170000001700C2
:1012D00001001600000016000000160000001600B5
:1012E00000001600000016000000160000001600A6
:1012F0000100150000001500000015000000150099
:101300000000150000001500000015000000150089
:10131000010014000000140000001400000014007C
:10132000000014000000140000001400000014006D
:10133000000014000000140001001300000013005E
:101340000000130000001300000013000000130051
:101350000000130000001300000013000000130041
:101360000100120000001200000012000000120034
:101370000000120000001200000012000000120025
:101380000000120000001200000012000100110015
:101390000000110000001100000011000000110009
:1013A00000001100000011000000110000001100F9
:1013B00000001100000011000000110000001100E9
:1013C00001001000000010000000100000001000DC
:1013D00000001000000010000000100000001000CD
:1013E00000001000000010000000100000001000BD
:1013F00000001000000010000000100001000F00AD
:1014000000000F0000000F0000000F0000000F00A0
:1014100000000F0000000F0000000F0000000F0090
:1014200000000F0000000F0000006563686F3A00C5
:101430000000000102000000000000000403070695
:10144000000000000000000000000000000000009C
:10145000010204081020408001020408102040808E
:10146000010204081020408080402010080402017E
:10147000020202020202020204040404040404043C
:10148000030303030303030301010101010101013C
:1014900000002200250028002B000000210024006D
:1014A00027002A004E414E494E495459494E46CDD7
:1014B000CCCC3D0AD7233C17B7D13877CC2B32950B
:1014C00095E6241FB14F0A000020410000C84200E9
:1014D000401C4620BCBE4CCA1B0E5AAEC59D7400B3
:1014E0006E47CF6611241FBECFEFD0E4DEBFCDBF65
:1014F00013E0A0E0B1E0EAE0FCE301E00BBF02C0D2
:1015000007900D92A23DB107D9F71EE0A2EDB3E01E
:1015100001C01D92AE36B107E1F714E1C4EED4E18B
:1015200000E006C022970109FE010BBF0E94EB9666
:10153000C03ED10780E00807A9F70E9485910C946E
:10154000039E0C940000FC01659175918591949126
:101550000895CF92DF92EF92FF920F931F93CF9354
:10156000DF93EC01CC0FDD1FCC0FDD1FCE018652C7
:10157000994F0E94A30AFE01E258F94FC080D18022
:10158000E280F3808E010656194FA70196010E9452
:101590009B91F8016083718382839383CE018E5087
:1015A000994F0E94A30A8E010E58194FA701960168
:1015B0000E949B91F8016083718382839383CE01A3
:1015C0008A51994F0E94A30AC95DDE4FA701960177
:1015D0000E949B91688379838A839B83DF91CF915B
:1015E0001F910F91FF90EF90DF90CF900895809121
:1015F000220190912301A0912401B09125018093B3
:101600003A0690933B06A0933C06B0933D0680912A
:10161000390190913A019093AB068093AA0684E633
:1016200090E090933A01809339010E947790609303
:10163000E1037093E2038093E3039093E40381E07A
:101640000C94AD8680E00E94AD8680913A06909120
:101650003B06A0913C06B0913D06809322019093F9
:101660002301A0932401B09325018091AA069091B3
:10167000AB0690933A01809339010E947790609372
:10168000E1037093E2038093E3039093E4030895EE
:101690002F923F924F925F926F927F928F929F9282
:1016A000AF92BF92CF92DF92EF92FF920F931F9370
:1016B000CF93DF93CDB7DEB72A970FB6F894DEBF8E
:1016C0000FBECDBF1C01FC01E154F94F7490880F8F
:1016D000991F880F991F9A878987FC01E656F94F51
:1016E0001082118212821382E090A206F090A3066B
:1016F0000091A4061091A50620919E0630919F06A8
:101700004091A0065091A10660919A0670919B06A7
:1017100080919C0690919D06E6EACE2EE6E0DE2EB4
:101720000E94285889859A858253994F0E94A30A5E
:101730004B015C01672D772767FD7095872F972FE9
:101740000E94169369837A838B839C8309851A850B
:10175000025B194F20E030E040EC5FE3C501B401CB
:101760000E94649529813A814B815C810E94649535
:10177000D8016D937D938D939C931397E985FA859A
:10178000E55CFE4F80819181A281B381809322012B
:1017900090932301A0932401B0932501B2E02B166E
:1017A0003104B1F420E030E040E752E46091AF0C46
:1017B0007091B00C8091B10C9091B20C0E94649524
:1017C000609322017093230180932401909325015B
:1017D00020E030E040E752E4609122017091230163
:1017E00080912401909125010E947B924B015C0124
:1017F000E0905606F0905706009158061091590651
:10180000209152063091530640915406509155064E
:1018100060914E0670914F0680915006909151064E
:10182000A0E6B6E0BF93AF93EAE5CE2EE6E0DE2E6B
:101830000E94F64C0E94B88D89859A858656994FEC
:1018400098878F83DC011D921D921D921C92139725
:10185000E090A206F090A3060091A4061091A506C0
:1018600020919E0630919F064091A0065091A106BE
:1018700060919A0670919B0680919C0690919D06BE
:10188000F6EACF2EF6E0DF2E0E94285889859A8549
:101890008E53994F0E94A30A2B013C01E985FA85DA
:1018A000E25BF94FFE83ED83905829813A814B81A9
:1018B0005C810E946495AD81BE816D937D938D9313
:1018C0009C93139720E030E040E752E460912201BE
:1018D0007091230180912401909125010E947B92B7
:1018E0004B015C01E0905606F090570600915806B7
:1018F000109159062091520630915306409154069A
:101900005091550660914E0670914F068091500699
:1019100090915106A0E6B6E0BF93AF93AAE5CA2E18
:10192000A6E0DA2E0E94F64C0E94B88DA301920127
:10193000C301B2010E949B9129813A814B815C8154
:101940000E946495AD81BE816D937D938D939C9330
:101950001397E985FA85E55CFE4F20E030E040E032
:101960005FE360817181828193810E9464956093BD
:10197000220170932301809324019093250120E09C
:1019800030E040E752E40E947B924B015C01E09022
:101990005606F0905706009158061091590620916E
:1019A000520630915306409154065091550660916D
:1019B0004E0670914F068091500690915106A0E618
:1019C000B6E0BF93AF930E94F64C0E94B88DC10160
:1019D0000E94A90AEF81F88580819181A281B3815B
:1019E000ED81FE8180839183A283B38310922201D3
:1019F0001092230110922401109225010E94A686C4
:101A0000F101E159F94F81E080830F900F900F9021
:101A10000F900F900F902A960FB6F894DEBF0FBE6E
:101A2000CDBFDF91CF911F910F91FF90EF90DF908D
:101A3000CF90BF90AF909F908F907F906F905F906E
:101A40004F903F902F900895CF92DF92EF92FF92A8
:101A5000CF93DF93EC01E62F6A3009F07AC08091D2
:101A6000C00085FFFCCF8AE28093C600688179813F
:101A70008A819B8120E036EC49E950E00E94819602
:101A8000CA01B90128ED30E040E050E00E948196A3
:101A90006F5D8091C00085FFFCCF6093C6006881B8
:101AA00079818A819B8120E436EB40E050E00E94FE
:101AB0008196CA01B90128ED30E040E050E00E9473
:101AC00081966F5D8091C00085FFFCCF6093C6005A
:101AD000688179818A819B81F8EDCF2ED12CE12C10
:101AE000F12CA70196010E948196CA01B901A701B4
:101AF00096010E9481966F5D8091C00085FFFCCFAA
:101B00006093C600688179818A819B8128ED30E0ED
:101B100040E050E00E948196662341F06F5D809125
:101B2000C00085FFFCCF6093C60007C08091C00055
:101B300085FFFCCF81E28093C6008091C00085FFC5
:101B4000FCCF8AE08093C600188219821A821B8219
:101B500016C0288139814A815B81AFE1B0E00E94E3
:101B60004A966E0F711D811D911D688379838A834A
:101B70009B838091C00085FFFCCFE093C600DF917E
:101B8000CF91FF90EF90DF90CF900895CF92DF92AA
:101B9000EF92FF92CF93DF93EC016A017B01FE018C
:101BA0006491662331F085EC9CE00E94240D21961F
:101BB000F6CF24E030E0B701A60185EC9CE0DF9190
:101BC000CF91FF90EF90DF90CF900C94CD66CF92A5
:101BD000DF92EF92FF92CF93DF93EC016A017B01DA
:101BE000FE016491662331F085EC9CE00E94240D97
:101BF0002196F6CF2AE030E0B701A60185EC9CE003
:101C0000DF91CF91FF90EF90DF90CF900C94D8654B
:101C1000CF93DF9300D0CDB7DEB78091680E90915F
:101C2000690E9E012F5F3F4F009719F42E563E40DC
:101C300002C0281B390B3A83298389819A810F902E
:101C40000F90DF91CF9108958091E5039091E60385
:101C500060E070E001960C9416988091E5039091F5
:101C6000E6034AE050E060E070E001960C9493993E
:101C7000682F772767FD70952091EE033091EF0371
:101C800040E6429FC001439F900D11248C509C4F11
:101C90000E94E79A9093E6038093E50321E0892B65
:101CA00009F420E0822F08950E9477906093E10369
:101CB0007093E2038093E3039093E403089585EC2B
:101CC0009CE00E9444650C94540ECF93DF938EE405
:101CD0000E94380E811103C0CEEED1E019C0C3EFCF
:101CE000D1E06991662329F085EC9CE00E94240DE7
:101CF000F8CF4091C10C5091C20C6091C30C70910F
:101D0000C40C2AE030E085EC9CE00E94D86508C055
:101D10006991662329F085EC9CE00E94240DF8CFA0
:101D20006AE085EC9CE0DF91CF910C94240DCF9379
:101D3000DF93C9EFD1E06991662329F085EC9CE03F
:101D40000E94240DF8CF4AE050E061E070E085EC9D
:101D50009CE00E941F666AE085EC9CE0DF91CF91D9
:101D60000C94240DFF920F931F93CF93DF9340E0C9
:101D700056E960E070E085EC9CE00E94FF64E9EBCE
:101D8000F6E06491EF01662341F085EC9CE00E944F
:101D9000240D2196FE016491F6CF6AE085EC9CE06B
:101DA0000E94240DCEEFD6E0FE0164918E016623E1
:101DB00049F085EC9CE00E94240D0F5F1F4FF80155
:101DC0006491F5CFF4B6F0FE14C0E1EBF6E0649157
:101DD0008F01662349F085EC9CE00E94240D0F5F83
:101DE0001F4FF8016491F5CF6AE085EC9CE00E94FA
:101DF000240DF1FE14C0E1EAF6E064918F01662340
:101E000049F085EC9CE00E94240D0F5F1F4FF80104
:101E10006491F5CF6AE085EC9CE00E94240DF2FE0F
:101E200014C0E0E9F6E064918F01662349F085EC87
:101E30009CE00E94240D0F5F1F4FF8016491F5CFC5
:101E40006AE085EC9CE00E94240DF3FE14C0E0E8FB
:101E5000F6E064918F01662349F085EC9CE00E94D6
:101E6000240D0F5F1F4FF8016491F5CF6AE085ECF8
:101E70009CE00E94240DF5FE14C0E0E7F6E06491BA
:101E80008F01662349F085EC9CE00E94240D0F5FD2
:101E90001F4FF8016491F5CF6AE085EC9CE00E9449
:101EA000240D14BE88E10FB6F89480936000109260
:101EB00060000FBE8091600086FD14C0E4E5F6E08E
:101EC00064918F01662349F085EC9CE00E94240D0B
:101ED0000F5F1F4FF8016491F5CF6AE085EC9CE03D
:101EE0000E94240DEDE4F6E064918F01662349F031
:101EF00085EC9CE00E94240D0F5F1F4FF801649158
:101F0000F5CFE9E4F6E064918F01662349F085ECB2
:101F10009CE00E94240D0F5F1F4FF8016491F5CFE4
:101F20006AE085EC9CE00E94240DFE0164910EEFB6
:101F300016E0662349F085EC9CE00E94240D0F5FBB
:101F40001F4FF8016491F5CFE9E3F6E064918F014A
:101F5000662349F085EC9CE00E94240D0F5F1F4F23
:101F6000F8016491F5CFE4E2F6E064918F01662315
:101F700049F085EC9CE00E94240D0F5F1F4FF80193
:101F80006491F5CFE8E1F6E064918F01662349F0B2
:101F900085EC9CE00E94240D0F5F1F4FF8016491B7
:101FA000F5CFEFE0F6E064918F01662349F085EC10
:101FB0009CE00E94240D0F5F1F4FF8016491F5CF44
:101FC0006AE085EC9CE00E94240DE4E0F6E0649178
:101FD0008F01662349F085EC9CE00E94240D0F5F81
:101FE0001F4FF8016491F5CFE8EFF5E064918F01A0
:101FF000662349F085EC9CE00E94240D0F5F1F4F83
:10200000F8016491F5CF6AE085EC9CE00E94240D14
:10201000FE0164910EEF16E0662349F085EC9CE02A
:102020000E94240D0F5F1F4FF8016491F5CFE9EE78
:10203000F5E06491EF01662341F085EC9CE00E949D
:10204000240D2196FE016491F6CF0E94080E4AE00D
:1020500050E0BC0185EC9CE00E941F66E2EDF5E0DB
:102060006491EF01662341F085EC9CE00E94240D11
:102070002196FE016491F6CF4AE050E060E475E0FD
:1020800085EC9CE00E941F666AE085EC9CE00E9463
:10209000240D1092F0031092F1031092F2031092AB
:1020A000F3030E9439630E94A16D0E948F4B0E942E
:1020B000648DFFEF29E688E1F15020408040E1F790
:1020C00000C00000E091D40394E0E99FF0011124E6
:1020D000E056F24F80819181A281B38180932E06D8
:1020E00090932F06A0933006B093310682E00E94B1
:1020F000118E0E94169320919F0C3091A00C40915C
:10210000A10C5091A20C0E947B9260932A067093BE
:102110002B0680932C0690932D06DF91CF911F9173
:102120000F91FF900C94970ECF92DF92EF92FF9257
:10213000CF93DF936B017C01C2E0D2E0699166230B
:1021400029F085EC9CE00E94240DF8CF2AE030E0D5
:10215000B701A60185EC9CE00E9409666AE085EC67
:102160009CE0DF91CF91FF90EF90DF90CF900C94A7
:10217000240D2F923F924F925F926F927F928F9297
:102180009F92AF92BF92CF92DF92EF92FF920F9306
:102190001F93CF93DF9300D000D000D0CDB7DEB730
:1021A000A8ED8A2E912CA12CB12C8091550D9091E7
:1021B000560D2091570D3091580D821B930B8F7740
:1021C0009927892B09F40BC18091EA039091EB03C5
:1021D00004970CF004C185EC9CE00E942865809374
:1021E000E9032091E7033091E8032136310524F01B
:1021F0001092E8031092E7032091EC033091ED0375
:102200003A832983E091E703F091E803DF01119617
:10221000BC83AB83B093E803A093E703B0E6B29F1F
:102220001001B39F300C1124E20DF31DEC50FC4F54
:1022300080838A3009F0B9CF1082F101EC50FC4F55
:10224000FE83ED836AE270E0CF010E94E79A009777
:1022500009F4C0C08C012D813E81021B130BC12CDF
:10226000D12C7601E0E0F0E0E017F107C4F4AD8195
:10227000BE81AE0FBF1F4C90552447FC5094652C77
:10228000752CAFE1B0E0A70196010E944A966B0160
:102290007C013196C40CD51CE61CF71CE5CFC0921E
:1022A0007405D0927505E0927605F0927705C70126
:1022B000B60120E036EC49E950E00E948196CA015F
:1022C000B901A50194010E9481966F5D6093780524
:1022D000C701B60120E436EB40E050E00E94819651
:1022E000CA01B901A50194010E9481966F5D6093B6
:1022F0007905C701B601A50194010E948196F62EC9
:10230000CA01B901A50194010E9481966F5D609395
:102310007A0581E28F0D80937B05C8010696AB811B
:10232000BC818A179B0709F055C0E8E7F5E0C101B9
:10233000800F911F8C509C4F21E030E0DC01A20FF8
:10234000B31F41915C91541345C01C922F5F3F4FC6
:102350002530310599F720E6E981FA812E9FC001E9
:102360002F9F900D11244AE050E060E070E08B5008
:102370009C4F0E9493996B017C010E949410809164
:10238000360690913706A0913806B0913906C816E6
:10239000D906EA06FB06F1F0C0923606D09237065F
:1023A000E0923806F09239068091EC039091ED03AB
:1023B000019664E070E00E946D969093ED03809327
:1023C000EC038091EA039091EB0301969093EB0369
:1023D0008093EA031092E8031092E703E6CE269674
:1023E0000FB6F894DEBF0FBECDBFDF91CF911F9126
:1023F0000F91FF90EF90DF90CF90BF90AF909F90A4
:102400008F907F906F905F904F903F902F900895A6
:102410004F925F926F927F928F929F92AF92BF92F4
:10242000CF92DF92EF92FF920F931F93CF93DF93A0
:10243000CDB7DEB7A4970FB6F894DEBF0FBECDBF01
:102440009DE7892E93E0992E2AE8A22E26E0B22E4F
:102450000EE416E03AE9C32E36E0D32E4CEAE42E21
:1024600046E0F42EF40181914F010E94380E9091C4
:1024700019068823C9F1911113C00E94240E2B0163
:102480003C01F7018081811103C06091130601C0F6
:1024900061E070E080E090E00E941693F60112C0C7
:1024A0000E94240E2B013C01F7018081811103C0A1
:1024B0006091130601C061E070E080E090E00E944E
:1024C0001693F50120813181428153810E946495E8
:1024D0009B01AC01C301B2010E949B91F801608392
:1024E0007183828393830EC0992311F0F50101C09B
:1024F000F60180819181A281B381F801808391836B
:10250000A283B383F4E0AF0EB11C0C5F1F4F84E0D5
:10251000C80ED11C9FEFE91AF90AE1E88E16E3E034
:102520009E0609F09FCF80911906882309F4DCC02C
:102530000EE416E080914E0690914F06A091500651
:10254000B091510680938A0690938B06A0938C06D7
:10255000B0938D06B2E5EB2EB6E0FB2E80915206CD
:1025600090915306A0915406B091550680938E0623
:1025700090938F06A0939006B093910686E5C82E9F
:1025800086E0D82E8091560690915706A091580665
:10259000B09159068093920690939306A093940667
:1025A000B093950680915A0690915B06A0915C06C7
:1025B000B0915D068093960690939706A093980637
:1025C000B09399068DB79EB784970FB6F8949EBFC7
:1025D0000FBE8DBFADB7BEB7119684E2EFE7F1E055
:1025E00001900D928A95E1F7CE0101960E941D5D42
:1025F0000FB6F894DEBF0FBECDBFDF92CF92FF9231
:10260000EF921F930F938DB79EB784970FB6F894F0
:102610009EBF0FBE8DBFADB7BEB7119684E2FE015F
:10262000319601900D928A95E1F70E94735B20919B
:10263000D4063091D5064091D6065091D7066091C8
:102640004E0670914F0680915006909151060E945F
:102650009B9160934E0670934F0680935006909323
:1026600051062091D8063091D9064091DA06509152
:10267000DB0660915206709153068091540690914A
:1026800055060E949B916093520670935306809367
:102690005406909355062091560630915706409166
:1026A0005806509159066091DC067091DD068091C4
:1026B000DE069091DF060E949A9120916B06309180
:1026C0006C0640916D0650916E060E949B9160933E
:1026D00056067093570680935806909359060FB686
:1026E000F894DEBF0FBECDBF86E40E94380E88236B
:1026F000D9F00E94240E6B017C0160933E0670931A
:102700003F06809340069093410620E030E0A90107
:102710000E949294181644F4C0922201D092230190
:10272000E0922401F0922501A4960FB6F894DEBF42
:102730000FBECDBFDF91CF911F910F91FF90EF9012
:10274000DF90CF90BF90AF909F908F907F906F90D1
:102750005F904F9008952F923F924F925F926F92A9
:102760007F928F929F92AF92BF92CF92DF92EF9221
:10277000FF920F931F93CF93DF93CDB7DEB7AC9744
:102780000FB6F894DEBF0FBECDBF30901906209073
:1027900013068AE196E09AA789A7EAE9F6E0FCA782
:1027A000EBA78AE896E09EA38DA30EE416E0ECEA80
:1027B000F6E0F8A7EFA3E9A5FAA5C190D190E190C2
:1027C000F190FAA7E9A7EBA5FCA581909190A190C3
:1027D000B190FCA7EBA7A5019401C701B6010E9427
:1027E0007492882311F0332089F0EDA1FEA140807E
:1027F000518062807380A3019201C701B6010E94DB
:1028000074928823A1F13320D1F110C0EFA1F8A573
:102810008081882311F061E001C0622D70E080E0CA
:1028200090E00E941693A501940113C0EFA1F8A5B2
:102830008081882311F061E001C0622D70E080E0AA
:1028400090E00E941693EDA1FEA12081318142818A
:1028500053810E9464959B01AC01C701B6010E949F
:102860009B91F80160837183828393830DC0332031
:1028700031F0F801408251826282738205C0F80112
:1028800080829182A282B3828DA19EA104969EA392
:102890008DA30C5F1F4FEFA1F8A53196F8A7EFA30A
:1028A00089A59AA58A52964009F085CF809119068C
:1028B000882309F4DCC00EE416E080914E06909166
:1028C0004F06A0915006B091510680938A069093CE
:1028D0008B06A0938C06B0938D0652E5E52E56E04C
:1028E000F52E8091520690915306A0915406B09116
:1028F000550680938E0690938F06A0939006B09312
:10290000910666E5C62E66E0D62E80915606909119
:102910005706A0915806B09159068093920690935D
:102920009306A0939406B093950680915A069091D1
:102930005B06A0915C06B0915D068093960690932D
:102940009706A0939806B09399068DB79EB7849783
:102950000FB6F8949EBF0FBE8DBFADB7BEB7119630
:1029600084E2EFE7F1E001900D928A95E1F7CE0164
:1029700001960E941D5D0FB6F894DEBF0FBECDBF5D
:10298000DF92CF92FF92EF921F930F938DB79EB776
:1029900084970FB6F8949EBF0FBE8DBFADB7BEB77C
:1029A000119684E2FE01319601900D928A95E1F72D
:1029B0000E94735B2091D4063091D5064091D606D3
:1029C0005091D70660914E0670914F068091500647
:1029D000909151060E949B9160934E0670934F0612
:1029E00080935006909351062091D8063091D906D5
:1029F0004091DA065091DB066091520670915306C1
:102A000080915406909155060E949B9160935206C6
:102A10007093530680935406909355062091560662
:102A20003091570640915806509159066091DC0646
:102A30007091DD068091DE069091DF060E949A91EA
:102A400020916B0630916C0640916D0650916E0698
:102A50000E949B9160935606709357068093580688
:102A6000909359060FB6F894DEBF0FBECDBFC0904D
:102A70003E06D0903F06E0904006F090410620E0F0
:102A800030E0A901C701B6010E949294181644F4DF
:102A9000C0922201D0922301E0922401F0922501FC
:102AA000AC960FB6F894DEBF0FBECDBFDF91CF91CD
:102AB0001F910F91FF90EF90DF90CF90BF90AF905C
:102AC0009F908F907F906F905F904F903F902F904E
:102AD00008950E94081289E40E94380E882359F054
:102AE0000E94240E6093420670934306809344062E
:102AF0009093450608C01092420610924306109229
:102B00004406109245068AE40E94380E882359F044
:102B10000E94240E609346067093470680934806F1
:102B20009093490608951092460610924706109217
:102B30004806109249060895CF92DF92EF92FF92D5
:102B4000CF93DF93EC01C0907206D0907306E090B3
:102B50007406F0907506A7019601688179818A81D3
:102B60009B810E94749287FF04C0C882D982EA8246
:102B7000FB82C0907606D0907706E0907806F090C1
:102B80007906A70196016C817D818E819F810E94CB
:102B9000749287FF04C0CC82DD82EE82FF82C090F7
:102BA0007A06D0907B06E0907C06F0907D06A70127
:102BB0009601688579858A859B850E94749287FF36
:102BC00004C0C886D986EA86FB86C0902701D090CB
:102BD0002801E0902901F0902A01A701960168815F
:102BE00079818A819B810E949294181624F4C8826C
:102BF000D982EA82FB82C0902B01D0902C01E09018
:102C00002D01F0902E01A70196016C817D818E81AE
:102C10009F810E949294181624F4CC82DD82EE8269
:102C2000FF82C0902F01D0903001E0903101F090F0
:102C30003201A7019601688579858A859B850E9466
:102C40009294181624F4C886D986EA86FB86DF910A
:102C5000CF91FF90EF90DF90CF9008954F925F92C9
:102C60006F927F928F929F92AF92BF92CF92DF929C
:102C7000EF92FF920F931F93CF93DF93CDB7DEB701
:102C800028970FB6F894DEBF0FBECDBF8EE496E056
:102C90000E949C150E9477906093E1037093E20379
:102CA0008093E3039093E40320914E0630914F0606
:102CB000409150065091510629833A834B835C839F
:102CC00060919A0670919B0680919C0690919D065A
:102CD0000E947492409052065090530660905406A1
:102CE000709055062091560630915706409158062F
:102CF000509159062D833E834F83588781118BC095
:102D0000A301920160919E0670919F068091A0069A
:102D10009091A1060E94749281117DC020E030E064
:102D200040E752E4609122017091230180912401D7
:102D3000909125010E947B924B015C0180E696E018
:102D40009F938F937AE5C72E76E0D72EED80FE8095
:102D50000F811885A301920169817A818B819C8101
:102D60000E94F64C0F900F9080914E0690914F0666
:102D7000A0915006B091510680939A0690939B06BD
:102D8000A0939C06B0939D068091520690915306A5
:102D9000A0915406B091550680939E0690939F068D
:102DA000A093A006B093A106809156069091570675
:102DB000A0915806B09159068093A2069093A3065D
:102DC000A093A406B093A50680915A0690915B0645
:102DD000A0915C06B0915D068093A6069093A7062D
:102DE000A093A806B093A90628960FB6F894DEBF64
:102DF0000FBECDBFDF91CF911F910F91FF90EF904C
:102E0000DF90CF90BF90AF909F908F907F906F900A
:102E10005F904F9008956091390170913A01882731
:102E200077FD8095982F0E94169320912201309172
:102E3000230140912401509125010E94649520E0D6
:102E400030E040E752E40E947B9220E030E048EC22
:102E500052E470CFAF92BF92CF92DF92EF92FF9287
:102E60000F931F93CF93DF93D82F20914606309175
:102E7000470640914806509149066091420670917C
:102E8000430680914406909145060E949F94C62F68
:102E9000172F082FF92E6091390170913A01882778
:102EA00077FD8095982F0E941693209122013091F2
:102EB000230140912401509125010E94649520E056
:102EC00030E040E752E40E947B9220E030E048ECA2
:102ED00052E40E947B92209160062F93DF93FF9231
:102EE0000F931F93CF935B016C01E2E0EE2E01E0A4
:102EF00020E042E456E06EE476E08AE996E00E9443
:102F0000FC6680914E0690914F06A0915006B091BC
:102F1000510680939A0690939B06A0939C06B093CB
:102F20009D068091520690915306A0915406B0914F
:102F3000550680939E0690939F06A093A006B0939B
:102F4000A1068091560690915706A0915806B0911F
:102F500059068093A2069093A306A093A406B0936B
:102F6000A50680915A0690915B06A0915C06B091EF
:102F70005D068093A6069093A706A093A806B0933B
:102F8000A9060E9477906093E1037093E203809317
:102F9000E3039093E4030F900F900F900F900F9026
:102FA0000F90DF91CF911F910F91FF90EF90DF90E5
:102FB000CF90BF90AF900895F8940E943B6E5E9AB8
:102FC00010926F065E9A10927006159A1092710612
:102FD0005E9AE4E0F7E06491EF01662341F085EC4E
:102FE0009CE00E94240D2196FE016491F6CFEDE94C
:102FF000F1E06491EF01662341F085EC9CE00E94D2
:10300000240D2196FE016491F6CF6AE085EC9CE0E8
:103010000E94240DFFCFF8940E943B6E5E9A10929E
:103020006F065E9A10927006159A109271065E9A5B
:103030000E94408EE4E0F7E06491EF01662341F0E6
:1030400085EC9CE00E94240D2196FE016491F6CF50
:10305000EEE7F1E06491EF01662341F085EC9CE03E
:103060000E94240D2196FE016491F6CF6AE085EC62
:103070009CE00E94240D85EC9CE00E944465109227
:10308000FC052EE088E190E00FB6F894A8958093B7
:1030900060000FBE2093600080916000FFCF2F92F0
:1030A0003F924F925F926F927F928F929F92AF92D8
:1030B000BF92CF92DF92EF92FF920F931F93CF9325
:1030C000DF93CDB7DEB7C458D1090FB6F894DEBF91
:1030D0000FBECDBFCE0101961C0180E8D1011D922B
:1030E0008A95E9F72091570D3091580D8091550D33
:1030F0009091560D80589F4F821B930B60E870E0B3
:103100000E946D961816190674F10091D403B4E06C
:103110000B9F80011124F801E056F24FC080D1804E
:10312000E280F38020911406309115064091160636
:1031300050911706C701B6010E949A914B015C019C
:10314000E894B7F840901401509015016090160172
:1031500070901701A3019201C501B4010E947492FD
:1031600087FD14C12DC1F1018901080F191F80E8E5
:10317000E82EF12CCF01821993092017310764F44E
:10318000C901B7010E946D968B52934FDC018C915F
:1031900081932F5F3F4FEECFF101E80FF91F1082AF
:1031A00069E072E0C1010E94009B009709F4ADCF75
:1031B000FC01E219F309CF010496CF57DF4F998341
:1031C0008883C158D040B8ED8B2E912CA12CB12C06
:1031D00010E4412E16EB512E612C712CDF01159657
:1031E000CD57DF4FB983A883C358D040F7FD8DCFAB
:1031F000D101AE0FBF1F8C918E3409F0C5C0C12C18
:10320000D12C7601CF57DF4F88819981C158D040AA
:10321000E817F907E4F4AFE1B0E0A70196010E94D6
:103220004A968B019C01CF0160E870E00E946D9688
:10323000820D931DDC01CC90DD24C7FCD094ED2CD5
:10324000FD2CC00ED11EE21EF31E3196DBCFC7014E
:10325000B60120E036EC49E950E00E948196CA01AF
:10326000B901A50194010E9481966F5D6093780574
:10327000C701B601A30192010E948196CA01B9015A
:10328000A50194010E9481966F5D60937905C70145
:10329000B601A50194010E948196162FCA01B901B9
:1032A000A50194010E9481966F5D60937A051F5D70
:1032B00010937B05CD57DF4F28813981C358D0400B
:1032C000E8E7F5E041E01191C90160E870E00E9493
:1032D0006D96820D931DDC018C91811340E02F5F70
:1032E0003F4FB5E0EC37FB0771F7442309F445C0C5
:1032F00006E012E0F80161918F01662329F085EC68
:103300009CE00E94240DF6CF07EF11E0D8016D91EB
:103310008D01662329F085EC9CE00E94240DF6CFF8
:103320004091360650913706609138067091390603
:103330004F5F5F4F6F4F7F4F2AE030E085EC9CE09E
:103340000E9409666AE085EC9CE00E94240DE2EC94
:10335000F1E064918F01662349F085EC9CE00E94C6
:10336000240D0F5F1F4FF8016491F5CF6AE085ECE3
:103370009CE00E94240D0E940B18CF57DF4F18824B
:10338000C158D040E0E0F0E0319730CFA70196017E
:1033900060912E0670912F06809130069091310633
:1033A0000E949A919F7720911801309119014091C4
:1033B0001A0150911B010E94929418160CF430C20D
:1033C000A701960160912E0670912F06809130061C
:1033D000909131060E949A916B017C01E894F7F874
:1033E00020911C0130911D0140911E0150911F013F
:1033F000C701B6010E94929418160CF428C2A301CA
:103400009201C501B4010E94749287FF5FC02091B0
:1034100018013091190140911A0150911B01C70107
:10342000B6010E94929418160CF050C020E030E4CF
:103430004CE156E4609110017091110180911201EC
:10344000909113010E94929418160CF400C23EC091
:10345000F801E056F24F408151816281738121E091
:1034600030E085EC9CE00E94CD666AE085EC9CE053
:103470000E94240DE091D40384E0E89FF001112420
:10348000E056F24F80819181A281B38180932E0614
:1034900090932F06A0933006B093310620E030E4DD
:1034A0004CE156E46091100170911101809112017C
:1034B000909113010E949294181644F410921001F6
:1034C000109211011092120110921301C0902A065D
:1034D000D0902B06E0902C06F0902D0682E00E9402
:1034E000118E0E94169320919F0C3091A00C409158
:1034F000A10C5091A20C0E947B929B01AC01C701D0
:10350000B6010E949A919F7720910C0130910D0194
:1035100040910E0150910F010E94929418160CF0E8
:10352000DBC082E00E94118E0E94169320919F0CB6
:103530003091A00C4091A10C5091A20C0E947B9262
:1035400060932A0670932B0680932C0690932D0689
:1035500080916606882309F45DC020E030E040E8F1
:103560005FE36091610670916206809163069091BD
:1035700064060E949B91609361067093620680933B
:1035800063069093640620910C0130910D014091E7
:103590000E0150910F010E94649520E030E046E159
:1035A00053E40E947B926B017C0124EA30E74DE7F3
:1035B0005FE30E949294181644F4A4EACA2EA0E78E
:1035C000DA2EADE7EA2EAFE3FA2E0EE012E0D801D4
:1035D0006D918D01662329F085EC9CE00E94240DFD
:1035E000F6CF07EF11E0F80161918F01662329F012
:1035F00085EC9CE00E94240DF6CF24E030E0B7017A
:10360000A60185EC9CE00E94CD666AE085EC9CE01A
:103610000E94240D80916506882309F45DC020E096
:1036200030E040E85FE3609161067091620680914E
:103630006306909164060E949B916093610670936B
:103640006206809363069093640620910C0130918A
:103650000D0140910E0150910F010E94649520E0F0
:1036600030E046E153E40E947B926B017C0124EA46
:1036700030E74DE75FE30E949294181644F4F4EAB1
:10368000CF2EF0E7DF2EFDE7EF2EFFE3FF2E0EE05B
:1036900012E0D8016D918D01662329F085EC9CE044
:1036A0000E94240DF6CF07EF11E0F80161918F0120
:1036B000662329F085EC9CE00E94240DF6CF24E0DF
:1036C00030E0B701A60185EC9CE00E94CD666AE07F
:1036D00085EC9CE00E94240D0E9477900091DD0310
:1036E0001091DE032091DF033091E003C090E103ED
:1036F000D090E203E090E303F090E4036C197D09BD
:103700008E099F09061717072807390730F4012B80
:10371000022B032B11F00E94DC178091070190917E
:103720000801A0910901B0910A01892B8A2B8B2BEA
:1037300049F10E9477900091E1031091E2032091FA
:10374000E3033091E403601B710B820B930B009138
:103750000701109108012091090130910A01061713
:1037600017072807390770F49091E5068091E40661
:10377000981308C07DC06AE085EC9CE00E94240D8F
:1037800010920B010E94D84C61E08DE10E94D58F10
:10379000C090A00DD090A10DE090A20DF090A30DCF
:1037A00020E030E048E452E4C701B6010E94929460
:1037B00018163CF48FEF90E090935F0680935E06BE
:1037C00004C010925F0610925E0620E030E040E7F1
:1037D00052E4C701B6010E949294181614F461E0F5
:1037E00001C060E08DE10E94F58FCC57DF4F0FB62E
:1037F000F894DEBF0FBECDBFDF91CF911F910F9127
:10380000FF90EF90DF90CF90BF90AF909F908F9000
:103810007F906F905F904F903F902F900C944464F6
:1038200020E030E040E85FE3609110017091110109
:1038300080911201909113010E949B91609310015D
:10384000709311018093120190931301B9CDECEBA9
:10385000F1E064917F01662309F4FACD85EC9CE0E8
:103860000E94240DFFEFEF1AFF0AF7016491F3CFD6
:1038700080910B01882309F485CF5E9A10926F0620
:103880005E9A10927006159A109271065E9A06E181
:1038900012E0D8016D918D01662309F46CCF85EC9F
:1038A0009CE00E94240DF5CF8091D3030895FF92F0
:1038B0000F931F93CF93DF93EC0180916006809369
:1038C000D40384E50E94380E811102C080E05EC0FE
:1038D0000E94240E0E94E892F62E6093D403662381
:1038E000A9F3EEEFF6E064918F01662349F085ECD1
:1038F0009CE00E94240D0F5F1F4FF8016491F5CFEB
:10390000C936D10599F034F4C836D10591F5CBE725
:10391000D2E00FC0CD36D10531F0CA3DD10549F511
:10392000C6E3D2E01EC0CDE4D2E013C0C4E6D2E0CC
:1039300008C069916623E9F085EC9CE00E94240DA3
:10394000F8CF69916623A9F085EC9CE00E94240DD4
:10395000F8CF6991662369F085EC9CE00E94240D04
:10396000F8CF6991662329F085EC9CE00E94240D34
:10397000F8CF40E050E06F2D85EC9CE00E94E065C0
:103980006AE085EC9CE00E94240D81E0DF91CF91FC
:103990001F910F91FF9008952F923F924F925F9247
:1039A0006F927F928F929F92AF92BF92CF92DF924F
:1039B000EF92FF920F931F93CF93DF93CDB7DEB7B4
:1039C000CA50D1400FB6F894DEBF0FBECDBF1092E3
:1039D000C00C1092BF0C8EE40E94380E882351F068
:1039E0000E942D0E6093C10C7093C20C8093C30C87
:1039F0009093C40C8091130680931206809119064F
:103A000080931806809121018093200181E50E9416
:103A1000380E882309F4C3C00E94240E0E94E3924A
:103A2000CB01AA2797FDA095BA2F88309105B8F44D
:103A3000FC01EA5BFF4F0C94C29681E08093130671
:103A400006C01092130609C01092130681E08093FD
:103A5000190605C081E08093130610921906809123
:103A60001906882309F49BC00AE816E02091D406C1
:103A70003091D5064091D6065091D70660919A06AE
:103A800070919B0680919C0690919D060E949A9150
:103A900060938A0670938B0680938C0690938D06B4
:103AA000AEE8EA2EA6E0FA2E2091D8063091D9068B
:103AB0004091DA065091DB0660919E0670919F0658
:103AC0008091A0069091A1060E949A9160938E0623
:103AD00070938F0680939006909391062091DC0658
:103AE0003091DD064091DE065091DF066091A2061E
:103AF0007091A3068091A4069091A5060E949A91C8
:103B000020916B0630916C0640916D0650916E06C7
:103B10000E949A91DC01CB01B058809302069093E9
:103B20000306A0930406B093050622E936E08093CD
:103B3000920690939306A0939406B0939506809175
:103B4000A6069091A706A091A806B091A906809319
:103B5000960690939706A0939806B09399063F9384
:103B60002F93FF92EF921F930F932DB73EB72452DE
:103B700031090FB6F8943EBF0FBE2DBFADB7BEB72B
:103B8000119684E2EFE7F1E001900D928A95E1F75A
:103B90000E94735B0FB6F894DEBF0FBECDBF87E403
:103BA0000E94380E882311F40C94FA380E94240ED7
:103BB0000E94E3926F3271050CF07BC16D3271058A
:103BC0000CF08DC56530710509F45AC29CF4623061
:103BD000710509F400C224F477FFEDC10C9483450C
:103BE0006330710509F4FFC16430710509F406C240
:103BF0000C9483456C31710511F40C94372C0CF046
:103C00004CC16A31710511F40C94F52A6B317105C0
:103C100011F00C9483458091C10C9091C20CA0913D
:103C2000C30CB091C40C8093BB0C9093BC0CA093BC
:103C3000BD0CB093BE0C77247394709265061092FD
:103C400061061092620610926306109264068FE776
:103C500091E00E94E15B8091220190912301A0916B
:103C60002401B091250180933A0690933B06A093DE
:103C70003C06B0933D068091390190913A019093B2
:103C8000AB068093AA0684E690E090933A01809375
:103C900039010E9477906093E1037093E20380936F
:103CA000E3039093E40381E00E94AD8660919A065D
:103CB00070919B0680919C0690919D0660934E06A4
:103CC00070934F06809350069093510620919E0664
:103CD00030919F064091A0065091A1062093520674
:103CE000309353064093540650935506E090A20635
:103CF000F090A3060091A4061091A506E092560646
:103D0000F092570600935806109359068090A60625
:103D10009090A706A090A806B090A90680925A0697
:103D200090925B06A0925C06B0925D061092220112
:103D3000109223011092240110922501B6EACB2E95
:103D4000B6E0DB2E0E9428588FE195E8A7E3B3EC9C
:103D50008093560690935706A0935806B093590641
:103D60008090AF0C9090B00CA090B10CB090B20CC1
:103D70008092220190922301A0922401B092250109
:103D800020915206309153064091540650915506A9
:103D900060914E0670914F068091500690915106A9
:103DA000E0E6F6E0FF93EF931AE5C12E16E0D12E80
:103DB0001FE1E12E15E8F12E07E313EC0E94F64C0B
:103DC0000E94B88D82E090E00E94A90A8091A2062C
:103DD0009091A306A091A406B091A50680935606E3
:103DE00090935706A0935806B0935906109222015B
:103DF0001092230110922401109225010E94A686A0
:103E000070927106E090A206F090A3060091A406BD
:103E10001091A50620919E0630919F064091A00624
:103E20005091A10660919A0670919B0680919C0624
:103E300090919D06F6EACF2EF6E0DF2E0E942858DC
:103E400080E00E94AD8680913A0690913B06A09159
:103E50003C06B0913D068093220190932301A093EC
:103E60002401B09325018091AA069091AB0690930E
:103E70003A01809339010E9477906093E103709337
:103E8000E2038093E3039093E4030E94A6860E94DA
:103E9000B88D109265060C94292C6D31710511F4C2
:103EA0000C94932D6E31710511F40C942F340C94F5
:103EB00083456734710511F40C94AF290CF05DC093
:103EC0006733710511F40C9423378CF46F3271054C
:103ED00009F498C76633710511F00C94834510926C
:103EE0001906E6E9F4E064918F010C941137683308
:103EF000710511F40C94CB376634710511F00C94F4
:103F000083450E9477906093E1037093E20380936E
:103F1000E3039093E4038CEC9CECACE0B0E480937E
:103F2000670690936806A0936906B0936A0680912D
:103F3000C8069091C906A091CA06B091CB0680939D
:103F40001A0690931B06A0931C06B0931D06809141
:103F5000CC069091CD06A091CE06B091CF0680936D
:103F60001E0690931F06A0932006B0932106EEEF45
:103F7000F6E064918F010C9451296A35710511F4B2
:103F80000C94313864F46834710511F40C94F429FC
:103F90006934710511F40C94662A0C9483456B35D1
:103FA000710511F40C9443386C35710511F40C94BF
:103FB00056380C94834581E090E09093C00C809338
:103FC000BF0C8091D303811106C00E9408120E9489
:103FD0002E160C941C478091D303811104C00E94BB
:103FE000691581E007C08091D303811107C00E9449
:103FF000691580E00E942A170C941C4780E50E94F6
:10400000380E882339F00E94240E0E94E8924B015A
:104010005C0103C0812C912C540183E50E94380E71
:10402000882361F00E94240E20E030E04AE754E447
:104030000E9464950E94E8924B015C010E94B88D39
:104040000E9477906B017C01C80CD91CEA1CFB1CF8
:104050000E9477906093E1037093E2038093E303FF
:104060009093E4030E9477906C157D058E059F0563
:1040700010F00C9481450E94C66B0E944F18F2CF3D
:104080008091C10C9091C20CA091C30CB091C40C52
:104090008093BB0C9093BC0CA093BD0CB093BE0C52
:1040A00081E090E09093C00C8093BF0C80E090E0A2
:1040B000AAE7B5E480933E0690933F06A09340069E
:1040C000B09341060E9477906093E1037093E203FE
:1040D0008093E3039093E40383E40E94380E8823E3
:1040E00009F4DBC20E94240E0E94E392CB01AA27AE
:1040F00097FDA095BA2FFC013197EB30F10508F040
:1041000050C2E25BFF4F0C94C29680E090E0ACE8B6
:10411000B2E480931A0690931B06A0931C06B093FA
:104120001D0680E090E0A4E4B2E410C080E090E0DE
:10413000ACE6B2E480931A0690931B06A0931C068B
:10414000B0931D0680E090E0ACEBB2E480931E06D5
:1041500090931F06A0932006B09321068091A2069B
:104160009091A306A091A406B091A5068093220683
:1041700090932306A0932406B09325068091A6066B
:104180009091A706A091A806B091A9068093260653
:1041900090932706A0932806B093290602C2209187
:1041A0009A0630919B0640919C0650919D0660E0D6
:1041B00070E080E491E40E949A9160931A067093F3
:1041C0001B0680931C0690931D0680919E0690917D
:1041D0009F06A091A006B091A10680931E06909321
:1041E0001F06A0932006B093210685E791E2ABE27B
:1041F000B0ECBCCF80919A0690919B06A0919C0652
:10420000B0919D0680931A0690931B06A0931C06FE
:10421000B0931D0680919E0690919F06A091A006E6
:10422000B091A10680931E0690931F06A0932006CE
:10423000B093210688EA94E5AEE7B0E497CF80E03A
:1042400090E0A0E8BFE380931A0690931B06A0932A
:104250001C06B0931D0680919E0690919F06A0912A
:10426000A006B091A10672CF80919A0690919B060C
:10427000A0919C06B0919D0680931A0690931B0610
:10428000A0931C06B0931D0680E090E0A2ECB2E47F
:104290005DCF80919A0690919B06A0919C06B0916B
:1042A0009D0680931A0690931B06A0931C06B0935C
:1042B0001D0680919E0690919F06A091A006B09148
:1042C000A10680931E0690931F06A0932006B0932C
:1042D000210680E090E0A0E0B0E448CF809119068C
:1042E000882369F180E090E0A4E8B2EC80931A069C
:1042F00090931B06A0931C06B0931D0680E090E0EF
:10430000A0E4B2E480931E0690931F06A0932006BB
:10431000B093210680E090E0A0E2B1E48093220611
:1043200090932306A0932406B093250680919606C9
:1043300090919706A0919806B091990627CF80E0BA
:1043400090E0A0E8BFE380931A0690931B06A09329
:104350001C06B0931D0680E090E0AAECB2E48093C6
:104360001E0690931F06A0932006B093210620E01E
:1043700030E040E251E46091A2067091A306809182
:10438000A4069091A5060E949A91609322067093CC
:1043900023068093240690932506F0CE11E0109317
:1043A00001061092FC051092FD051092FE05109278
:1043B000FF058CEF95E00E947F598091FC0590915C
:1043C000FD05A091FE05B091FF05809396069093A0
:1043D0009706A0939806B09399068093A6069093AB
:1043E000A706A093A806B093A90610921A061092E9
:1043F0001B0610921C0610921D0610921E061092AB
:104400001F0610922006109221061092220610928A
:104410002306109224061092250680E090E0A0E288
:10442000B2E48093260690932706A0932806B093C3
:10443000290680E090E0A8E4B3E480933E069093E0
:104440003F06A0934006B0934106109301061093D7
:104450000006A7C080E090E0A0EAB0E48093A20646
:104460009093A306A093A406B093A5068093A606F6
:104470009093A706A093A806B093A90620919E0644
:1044800030919F064091A0065091A10660919A0636
:1044900070919B0680919C0690919D06E6EACE2E37
:1044A000E6E0DE2EE12CF12C00EA10E40E94285810
:1044B00080919A0690919B06A0919C06B0919D06D2
:1044C00080931A0690931B06A0931C06B0931D06BA
:1044D00080919E0690919F06A091A006B091A106A2
:1044E00080931E0690931F06A0932006B09321068A
:1044F00080E090E0A0EAB0EC80932206909323063F
:10450000A0932406B093250641CE80919A069091FF
:104510009B06A0919C06B0919D0680931A069093ED
:104520001B06A0931C06B0931D0680919E069091D9
:104530009F06A091A006B091A10680931E069093BD
:104540001F06A0932006B093210620E030E040EA49
:1045500050E46091A2067091A3068091A406909108
:10456000A5060E949A916093220670932306809379
:1045700024069093250620E030E040EA50E4609164
:10458000A6067091A7068091A8069091A9060E94A0
:104590009A9160932606709327068093280690933D
:1045A00029068091D303811104C00E94AB130E949D
:1045B0002E1680910106882331F11092FC0510928D
:1045C000FD051092FE051092FF058CEF95E00E940C
:1045D0007F59109201068091FC059091FD05A091F4
:1045E000FE05B091FF058093960690939706A093E1
:1045F0009806B09399068093A6069093A706A09379
:10460000A806B093A90680910006882309F44DC03E
:1046100080919E0690919F06A091A006B091A10660
:1046200080931A0690931B06A0931C06B0931D0658
:1046300080931E0690931F06A0932006B093210638
:104640008091A2069091A306A091A406B091A50620
:104650008093220690932306A0932406B093250608
:104660008091A6069091A706A091A806B091A906F0
:104670008093260690932706A0932806B0932906D8
:1046800080E090E0AAEFB3E480933E0690933F066B
:10469000A0934006B093410608C08091D3038111D6
:1046A00004C00E9408120E942E160E94B88D8091AC
:1046B0001206809313068091180680931906809144
:1046C0002001809321010E9477906093E103709311
:1046D000E2038093E3039093E4030C9433448091CA
:1046E000C10C9091C20CA091C30CB091C40C8093EA
:1046F000BB0C9093BC0CA093BD0CB093BE0C81E09E
:1047000090E09093C00C8093BF0C0E9477906093D0
:10471000E1037093E2038093E3039093E40311E0D9
:10472000109301061092FC051092FD051092FE05F3
:104730001092FF058CEF95E00E947F598091FC0557
:104740009091FD05A091FE05B091FF05809396061E
:1047500090939706A0939806B09399068093A60627
:104760009093A706A093A806B093A90610930106FC
:10477000E9ECF5E064918F01662349F085EC9CE05B
:104780000E94240D0F5F1F4FF8016491F5CF24E0C4
:1047900030E040E050E060E07EE385EC9CE00E9489
:1047A000CD666AE085EC9CE00E94240D80918A062B
:1047B00090918B06A0918C06B0918D0680931A067D
:1047C00090931B06A0931C06B0931D0680918E0645
:1047D00090918F06A0919006B091910680931E064D
:1047E00090931F06A0932006B09321068091920615
:1047F00090919306A0919406B0919506809322061D
:1048000090932306A0932406B093250680919606E4
:1048100090919706A0919806B091990680932606EC
:1048200090932706A0932806B093290680E090E095
:10483000AAEFB3E480933E0690933F06A093400610
:10484000B09341068091D303811104C00E94AB1341
:104850000E942E160E94B88DE0ECF5E064918F0165
:10486000662349F085EC9CE00E94240D0F5F1F4FEA
:10487000F8016491F5CF24E030E040E050E060E8DA
:104880007EE385EC9CE00E94CD666AE085EC9CE0CE
:104890000E94240D80918A0690918B06A0918C062F
:1048A000B0918D0680931A0690931B06A0931C0668
:1048B000B0931D0680E090E0A8EBB1E480931E0663
:1048C00090931F06A0932006B09321068DEC9CECDC
:1048D000ACE4BEE38093220690932306A0932406C3
:1048E000B09325068091960690919706A091980620
:1048F000B09199068093260690932706A0932806E8
:10490000B093290680E090E0A8E4B4E480933E06EA
:1049100090933F06A0934006B09341068091D30345
:10492000811104C00E94AB130E942E160E94B88D04
:10493000E7EBF5E064918F01662349F085EC9CE09C
:104940000E94240D0F5F1F4FF8016491F5CF24E002
:1049500030E040E050E060EC7EE385EC9CE00E94BB
:10496000CD666AE085EC9CE00E94240D80918A0669
:1049700090918B06A0918C06B0918D0680931A06BB
:1049800090931B06A0931C06B0931D0610921E0662
:1049900010921F0610922006109221068091920616
:1049A00090919306A0919406B0919506809322066B
:1049B00090932306A0932406B093250680E090E010
:1049C000A0EAB1E48093260690932706A0932806D8
:1049D000B093290680E090E0A8ECB3E480933E0613
:1049E00090933F06A0934006B09341068091D30375
:1049F000811104C00E94AB130E942E160E94B88D34
:104A0000EEEAF5E064918F01662349F085EC9CE0C5
:104A10000E94240D0F5F1F4FF8016491F5CF24E031
:104A200030E040E050E060E07FE385EC9CE00E94F5
:104A3000CD666AE085EC9CE00E94240D80918A0698
:104A400090918B06A0918C06B0918D0680931A06EA
:104A500090931B06A0931C06B0931D0680E090E087
:104A6000A0E4B2EC80931E0690931F06A09320064C
:104A7000B09321068091920690919306A09194069E
:104A8000B09195068093220690932306A093240666
:104A9000B093250680E090E0A0EFB1E48093260675
:104AA00090932706A0932806B093290680E090E013
:104AB000AFE2B4E480933E0690933F06A093400695
:104AC000B09341068091D303811104C00E94AB13BF
:104AD0000E942E160E94B88DE5EAF5E064918F01E0
:104AE000662349F085EC9CE00E94240D0F5F1F4F68
:104AF000F8016491F5CF24E030E040E050E060E25E
:104B00007FE385EC9CE00E94CD666AE085EC9CE04A
:104B10000E94240D80E090E0A2E8B2EC80931A0697
:104B200090931B06A0931C06B0931D0680918E06E1
:104B300090918F06A0919006B091910680931E06E9
:104B400090931F06A0932006B093210680919206B1
:104B500090919306A0919406B091950680932206B9
:104B600090932306A0932406B09325068091960681
:104B700090919706A0919806B09199068093260689
:104B800090932706A0932806B09329068091D3031B
:104B9000811104C00E94AB130E942E160E94B88D92
:104BA000ECE9F5E064918F01662349F085EC9CE027
:104BB0000E94240D0F5F1F4FF8016491F5CF24E090
:104BC00030E040E050E060E47FE385EC9CE00E9450
:104BD000CD666AE085EC9CE00E94240D80918A06F7
:104BE00090918B06A0918C06B0918D0680931A0649
:104BF00090931B06A0931C06B0931D0680E090E0E6
:104C0000A0ECB1EC80931E0690931F06A0932006A3
:104C1000B09321068091920690919306A0919406FC
:104C2000B09195068093220690932306A0932406C4
:104C3000B093250680E090E0ACE0B2E480932606D5
:104C400090932706A0932806B093290680E090E071
:104C5000A1E6B4E480933E0690933F06A0934006FD
:104C6000B09341068091D303811104C00E94AB131D
:104C70000E942E160E94B88DE3E9F5E064918F0141
:104C8000662349F085EC9CE00E94240D0F5F1F4FC6
:104C9000F8016491F5CF24E030E040E050E060E6B8
:104CA0007FE385EC9CE00E94CD666AE085EC9CE0A9
:104CB0000E94240D80918A0690918B06A0918C060B
:104CC000B0918D0680931A0690931B06A0931C0644
:104CD000B0931D0680E090E0A0E4B2EC80931E0645
:104CE00090931F06A0932006B093210620E030E0A9
:104CF00040E251E46091920670919306809194068F
:104D0000909195060E949B916093220670932306D2
:104D1000809324069093250620E030E040EA50E49A
:104D200060919606709197068091980690919906E9
:104D30000E949A9160932606709327068093280616
:104D40009093290680E090E0A1E6B5E480933E06CA
:104D500090933F06A0934006B09341068091D30301
:104D6000811104C00E94AB130E942E160E94B88DC0
:104D7000EAE8F5E064918F01662349F085EC9CE058
:104D80000E94240D0F5F1F4FF8016491F5CF24E0BE
:104D900030E044EA50E76DE77FE385EC9CE00E9459
:104DA000CD666AE085EC9CE00E94240D80910106AE
:104DB000882309F4BCC21092FC051092FD051092E4
:104DC000FE051092FF058CEF95E00E947F5910922E
:104DD00001068091FC059091FD05A091FE05B09122
:104DE000FF058093960690939706A0939806B0933C
:104DF00099068093A6069093A706A093A806B09361
:104E0000A90695C260E070E0CB010E94A459809190
:104E1000C10C9091C20CA091C30CB091C40C8093B2
:104E2000BB0C9093BC0CA093BD0CB093BE0C81E066
:104E300090E09093C00C8093BF0C809122019091E0
:104E40002301A0912401B091250180933A0690930B
:104E50003B06A0933C06B0933D060E94779060937A
:104E6000E1037093E2038093E3039093E40311E082
:104E7000109301061092FC051092FD051092FE059C
:104E80001092FF058CEF95E00E947F598091FC0500
:104E90009091FD05A091FE05B091FF0580939606C7
:104EA00090939706A0939806B09399068093A606D0
:104EB0009093A706A093A806B093A90610930106A5
:104EC00080918A0690918B06A0918C06B0918D06F8
:104ED00080931A0690931B06A0931C06B0931D06A0
:104EE00080918E0690918F06A0919006B0919106C8
:104EF00080931E0690931F06A0932006B093210670
:104F00008091920690919306A0919406B091950697
:104F10008093220690932306A0932406B09325063F
:104F200080E090E0A0E4B1EC809326069093270601
:104F3000A0932806B093290680E090E0A2E0B3E4B5
:104F400080933E0690933F06A0934006B09341069F
:104F50008091D303811104C00E94AB130E942E16CE
:104F600080918A0690918B06A0918C06B0918D0657
:104F700080931A0690931B06A0931C06B0931D06FF
:104F800080918E0690918F06A0919006B091910627
:104F900080931E0690931F06A0932006B0932106CF
:104FA0008091920690919306A0919406B0919506F7
:104FB0008093220690932306A0932406B09325069F
:104FC00080E090E0A0E4B0E480932606909327066A
:104FD000A0932806B09329068091D303811104C0C1
:104FE0000E94AB130E942E1600E010E0412C512CC1
:104FF00080E4682E762CE1E8F5E03490E091D4036B
:1050000024E0E29FF0011124E056F24F20E030E06E
:1050100044EB52E460817181828193810E94929479
:105020002091D30380908A0690908B06A0908C06E6
:10503000B0908D06C0908E06D0908F06E0909006BE
:10504000F0909106409192065091930660919406DB
:105050007091950680921A0690921B06A0921C06EB
:10506000B0921D06C0921E06D0921F06E092200646
:10507000F092210640932206509323066093240663
:105080007093250618160CF094C080E090E0A0E420
:10509000B0EC8093260690932706A0932806B09341
:1050A0002906211104C00E94AB130E942E16809184
:1050B0008A0690918B06A0918C06B0918D06809304
:1050C0001A0690931B06A0931C06B0931D068091B0
:1050D0008E0690918F06A0919006B09191068093D4
:1050E0001E0690931F06A0932006B0932106809180
:1050F000920690919306A0919406B09195068093A4
:10510000220690932306A0932406B093250640928E
:1051100026065092270660922806709229068091F2
:10512000D303811104C00E94AB130E942E160E946B
:10513000B88D0F5F1F4FB801882777FD8095982F96
:105140000E94169320E030E04CE052E40E947B92F3
:105150006B017C0124EA30E74DE75FE30E94929403
:10516000181644F4B4EACB2EB0E7DB2EBDE7EB2EE5
:10517000BFE3FB2E632DA1E8AA2EA5E0BA2E66237D
:1051800051F085EC9CE00E94240D9FEFA91AB90A0A
:10519000F5016491F4CF24E030E0B701A60185EC7D
:1051A0009CE00E94CD666AE085EC9CE00E94240DA4
:1051B00025CF80E090E0A8ECB2EC80932606909397
:1051C0002706A0932806B093290680E090E0AAE77E
:1051D000B4E480933E0690933F06A0934006B093BC
:1051E0004106211104C00E94AB130E942E1680912B
:1051F0000106882331F11092FC051092FD051092F2
:10520000FE051092FF058CEF95E00E947F591092E9
:1052100001068091FC059091FD05A091FE05B091DD
:10522000FF058093960690939706A0939806B093F7
:1052300099068093A6069093A706A093A806B0931C
:10524000A906809112068093130680911806809318
:10525000190680912001809321010E94779060932C
:10526000E1037093E2038093E3039093E40380915E
:105270003A0690913B06A0913C06B0913D06809382
:10528000220190932301A0932401B09325010E9451
:10529000B88D60E070E086E193E40E94A4590C941C
:1052A0003344662349F085EC9CE00E94240D0F5F97
:1052B0001F4FF8016491F5CF4091D0065091D1066F
:1052C0006091D2067091D30686E795E00E94C60DE4
:1052D0006AE085EC9CE00E94240D209167063091E5
:1052E00068064091690650916A066091D0067091F7
:1052F000D1068091D2069091D3060E949B91609333
:10530000220670932306809324069093250610921C
:1053100026061092270610922806109229068091E0
:10532000D303811104C00E94AB130E942E168091FA
:1053300012068093130680911806809319068091B7
:105340002001809321010E9477906093E103709384
:10535000E2038093E3039093E4030C942B342DEC4D
:105360003CEC4CEC5CE360916706709168068091C0
:10537000690690916A060E949B91609367067093FC
:1053800068068093690690936A0680919A069091C8
:105390009B06A0919C06B0919D0680931A0690935F
:1053A0001B06A0931C06B0931D0680919E0690914B
:1053B0009F06A091A006B091A10680931E0690932F
:1053C0001F06A0932006B09321062DEC3CEC4CEC7C
:1053D0005CE36091A2067091A3068091A40690916F
:1053E000A5060E949B9144C02DEC3CEC4CEC5CE388
:1053F00060916706709168068091690690916A06CF
:105400000E949A916093670670936806809369067C
:1054100090936A0680919A0690919B06A0919C06B3
:10542000B0919D0680931A0690931B06A0931C06CC
:10543000B0931D0680919E0690919F06A091A006B4
:10544000B091A10680931E0690931F06A09320069C
:10545000B09321062DEC3CEC4CEC5CE36091A20691
:105460007091A3068091A4069091A5060E949A913E
:10547000609322067093230680932406909325065A
:105480008091A6069091A706A091A806B091A906C2
:105490008093260690932706A0932806B0932906AA
:1054A0008091D303811104C00E94AB130E942E1679
:1054B0008091120680931306809118068093190636
:1054C00080912001809321010C942B3481E0809302
:1054D00066061092610610926206109263061092A0
:1054E00064068091C10C9091C20CA091C30CB09144
:1054F000C40C8093BB0C9093BC0CA093BD0CB093D8
:10550000BE0C0E9477906093E1037093E203809356
:10551000E3039093E403809171068823E9F180E02E
:1055200090E0A7E0B3E480931A0690931B06A09343
:105530001C06B0931D0680E090E0A0EAB0E48093E2
:105540001E0690931F06A0932006B093210680E0CC
:1055500090E0ACE0B3E48093220690932306A093FE
:105560002406B09325068091A6069091A706A091E7
:10557000A806B091A9068093260690932706A093CB
:105580002806B09329068091D303811116C00E948A
:10559000AB130E942E1611C0E4E4F5E064918F0174
:1055A000662311F40C941D4585EC9CE00E94240DAB
:1055B0000F5F1F4FF8016491F3CF0E9477906093C3
:1055C000E1037093E2038093E3039093E4030E946A
:1055D000B88D1092660610926106109262061092C3
:1055E0006306109264060C9433448091C10C909130
:1055F000C20CA091C30CB091C40C8093BB0C9093CF
:10560000BC0CA093BD0CB093BE0C81E080936606E9
:105610001092610610926206109263061092640660
:105620008091220190912301A0912401B091250144
:1056300080933A0690933B06A0933C06B0933D06B8
:105640008091390190913A019093AB068093AA061C
:1056500084E690E090933A01809339010E9477901C
:105660006093E1037093E2038093E3039093E40378
:1056700081E00E94AD8660919A0670919B068091B0
:105680009C0690919D0660934E0670934F06809302
:1056900050069093510620919E0630919F064091AE
:1056A000A0065091A10620935206309353064093D2
:1056B000540650935506C090A606D090A706E090D9
:1056C000A806F090A906C0925A06D0925B06E09216
:1056D0005C06F0925D06AFE1CA2EA5E8DA2EA7E3DC
:1056E000EA2EA3E4FA2EC0925606D0925706E09214
:1056F0005806F09259068090AF0C9090B00CA09094
:10570000B10CB090B20C8092220190922301A09231
:105710002401B0922501E0E6F6E0FF93EF93BAE5AD
:10572000CB2EB6E0DB2E1FE1E12E15E8F12E07E3CC
:1057300013E40E94F64C0E94B88D82E00E941F8EF6
:105740006093A2067093A3068093A4069093A50687
:1057500060935606709357068093580690935906A7
:1057600080914E0690914F06A0915006B09151063F
:1057700080939A0690939B06A0939C06B0939D06F7
:105780008091520690915306A0915406B09155060F
:1057900080939E0690939F06A093A006B093A106C7
:1057A00080915A0690915B06A0915C06B0915D06CF
:1057B0008093A6069093A706A093A806B093A90687
:1057C0000E94A686E090A206F090A3060091A4068F
:1057D0001091A50620919E0630919F064091A0064B
:1057E0005091A10660919A0670919B0680919C064B
:1057F00090919D06F6EACF2EF6E0DF2E0E94285803
:1058000080E00E94AD8680913A0690913B06A0917F
:105810003C06B0913D068093220190932301A09312
:105820002401B09325018091AA069091AB06909334
:105830003A01809339010E9477906093E10370935D
:10584000E2038093E3039093E4030E94B88D1092E7
:10585000660610926106109262061092630610921C
:1058600064060E94970E0F900F900C9483458091D0
:10587000C10C9091C20CA091C30CB091C40C809348
:10588000BB0C9093BC0CA093BD0CB093BE0C8FE7E7
:1058900091E00E94E15B8091220190912301A0910F
:1058A0002401B091250180933A0690933B06A09382
:1058B0003C06B0933D068091390190913A01909356
:1058C000AB068093AA0684E690E090933A01809319
:1058D00039010E9477906093E1037093E203809313
:1058E000E3039093E40381E00E94AD8680919A06E1
:1058F00090919B06A0919C06B0919D0680934E06C8
:1059000090934F06A0935006B093510680919E0647
:1059100090919F06A091A006B091A1068093520697
:1059200090935306A0935406B09355068091A20617
:105930009091A306A091A406B091A5068093560667
:1059400090935706A0935806B09359068091A606E7
:105950009091A706A091A806B091A90680935A0637
:1059600090935B06A0935C06B0935D0610922201B3
:1059700010922301109224011092250188E50E94C3
:10598000380E882311F090E00AC089E50E94380E95
:105990008111F9CF8AE50E94380E91E09827909303
:1059A000260191110C94864588E50E94380E8111DC
:1059B0000C9486458091260181110C948C4589E5D3
:1059C0000E94380E81110C948C4588E50E94380E97
:1059D0008823D1F00E942D0E672B682B692BA1F034
:1059E0000E94240E20917E0630917F064091800611
:1059F000509181060E949B9160939A0670939B063A
:105A000080939C0690939D0689E50E94380E88231A
:105A1000D1F00E942D0E672B682B692BA1F00E94FC
:105A2000240E209182063091830640918406509185
:105A300085060E949B9160939E0670939F068093BB
:105A4000A0069093A1068091260181110C949245A5
:105A50008AE50E94380E81110C9492458AE50E94D5
:105A6000380E8823D1F00E942D0E672B682B692BEE
:105A7000A1F00E94240E2091860630918706409165
:105A80008806509189060E949B916093A2067093AC
:105A9000A3068093A4069093A506E090A206F0903A
:105AA000A3060091A4061091A50620919E063091B0
:105AB0009F064091A0065091A10660919A067091B0
:105AC0009B0680919C0690919D06A6EACA2EA6E0B0
:105AD000DA2E0E94285880E00E94AD8680913A0616
